{
  "contractName": "Rentals",
  "abi": [
    {
      "inputs": [],
      "stateMutability": "nonpayable",
      "type": "constructor"
    },
    {
      "anonymous": false,
      "inputs": [
        {
          "indexed": false,
          "internalType": "uint256",
          "name": "unitNumber",
          "type": "uint256"
        }
      ],
      "name": "LogForRent",
      "type": "event"
    },
    {
      "anonymous": false,
      "inputs": [
        {
          "indexed": false,
          "internalType": "uint256",
          "name": "unitNumber",
          "type": "uint256"
        }
      ],
      "name": "LogOccupied",
      "type": "event"
    },
    {
      "anonymous": false,
      "inputs": [
        {
          "indexed": false,
          "internalType": "uint256",
          "name": "unitNumber",
          "type": "uint256"
        }
      ],
      "name": "LogUnitAdded",
      "type": "event"
    },
    {
      "anonymous": false,
      "inputs": [
        {
          "indexed": false,
          "internalType": "uint256",
          "name": "unitNumber",
          "type": "uint256"
        },
        {
          "indexed": false,
          "internalType": "address",
          "name": "tenant",
          "type": "address"
        }
      ],
      "name": "LogUnitRented",
      "type": "event"
    },
    {
      "anonymous": false,
      "inputs": [
        {
          "indexed": true,
          "internalType": "address",
          "name": "previousOwner",
          "type": "address"
        },
        {
          "indexed": true,
          "internalType": "address",
          "name": "newOwner",
          "type": "address"
        }
      ],
      "name": "OwnershipTransferred",
      "type": "event"
    },
    {
      "inputs": [],
      "name": "owner",
      "outputs": [
        {
          "internalType": "address",
          "name": "",
          "type": "address"
        }
      ],
      "stateMutability": "view",
      "type": "function",
      "constant": true
    },
    {
      "inputs": [],
      "name": "renounceOwnership",
      "outputs": [],
      "stateMutability": "nonpayable",
      "type": "function"
    },
    {
      "inputs": [
        {
          "internalType": "address",
          "name": "newOwner",
          "type": "address"
        }
      ],
      "name": "transferOwnership",
      "outputs": [],
      "stateMutability": "nonpayable",
      "type": "function"
    },
    {
      "inputs": [],
      "name": "unitCount",
      "outputs": [
        {
          "internalType": "uint256",
          "name": "",
          "type": "uint256"
        }
      ],
      "stateMutability": "view",
      "type": "function",
      "constant": true
    },
    {
      "inputs": [
        {
          "internalType": "uint256",
          "name": "",
          "type": "uint256"
        }
      ],
      "name": "units",
      "outputs": [
        {
          "internalType": "uint256",
          "name": "unitNumber",
          "type": "uint256"
        },
        {
          "internalType": "string",
          "name": "unitAddress",
          "type": "string"
        },
        {
          "internalType": "enum Rentals.State",
          "name": "state",
          "type": "uint8"
        },
        {
          "internalType": "uint256",
          "name": "rent",
          "type": "uint256"
        },
        {
          "internalType": "uint256",
          "name": "term",
          "type": "uint256"
        },
        {
          "internalType": "string",
          "name": "startDate",
          "type": "string"
        },
        {
          "internalType": "uint256",
          "name": "deposit",
          "type": "uint256"
        },
        {
          "internalType": "address payable",
          "name": "landlord",
          "type": "address"
        },
        {
          "internalType": "address payable",
          "name": "tenant",
          "type": "address"
        }
      ],
      "stateMutability": "view",
      "type": "function",
      "constant": true
    },
    {
      "inputs": [
        {
          "internalType": "string",
          "name": "_unitAddress",
          "type": "string"
        },
        {
          "internalType": "uint256",
          "name": "_rent",
          "type": "uint256"
        },
        {
          "internalType": "uint256",
          "name": "_deposit",
          "type": "uint256"
        },
        {
          "internalType": "uint256",
          "name": "_term",
          "type": "uint256"
        },
        {
          "internalType": "string",
          "name": "_startDate",
          "type": "string"
        }
      ],
      "name": "addUnit",
      "outputs": [],
      "stateMutability": "nonpayable",
      "type": "function"
    },
    {
      "inputs": [
        {
          "internalType": "uint256",
          "name": "_unitNumber",
          "type": "uint256"
        }
      ],
      "name": "rentUnit",
      "outputs": [],
      "stateMutability": "payable",
      "type": "function",
      "payable": true
    },
    {
      "inputs": [
        {
          "internalType": "uint256",
          "name": "_unitNumber",
          "type": "uint256"
        }
      ],
      "name": "terminateLease",
      "outputs": [],
      "stateMutability": "nonpayable",
      "type": "function"
    },
    {
      "inputs": [
        {
          "internalType": "uint256",
          "name": "_unitNumber",
          "type": "uint256"
        }
      ],
      "name": "fetchUnit",
      "outputs": [
        {
          "internalType": "uint256",
          "name": "unitNumber",
          "type": "uint256"
        },
        {
          "internalType": "string",
          "name": "unitAddress",
          "type": "string"
        },
        {
          "internalType": "uint256",
          "name": "state",
          "type": "uint256"
        },
        {
          "internalType": "uint256",
          "name": "rent",
          "type": "uint256"
        },
        {
          "internalType": "uint256",
          "name": "deposit",
          "type": "uint256"
        },
        {
          "internalType": "uint256",
          "name": "term",
          "type": "uint256"
        },
        {
          "internalType": "string",
          "name": "startDate",
          "type": "string"
        },
        {
          "internalType": "address",
          "name": "landlord",
          "type": "address"
        },
        {
          "internalType": "address",
          "name": "tenant",
          "type": "address"
        }
      ],
      "stateMutability": "view",
      "type": "function",
      "constant": true
    }
  ],
  "bytecode": "0x60806040526001805534801561001457600080fd5b5061003161002661003660201b60201c565b61003e60201b60201c565b610102565b600033905090565b60008060009054906101000a900473ffffffffffffffffffffffffffffffffffffffff169050816000806101000a81548173ffffffffffffffffffffffffffffffffffffffff021916908373ffffffffffffffffffffffffffffffffffffffff1602179055508173ffffffffffffffffffffffffffffffffffffffff168173ffffffffffffffffffffffffffffffffffffffff167f8be0079c531659141344cd1fd0a4f28419497f9722a3daafe3b4186f6b6457e060405160405180910390a35050565b611a01806101116000396000f3fe6080604052600436106100865760003560e01c80638b7b0537116100595780638b7b0537146101105780638da5cb5b14610155578063e5fba6cc14610180578063f2fde38b146101c5578063f584fbf6146101ee57610086565b80632eff61e71461008b578063588e00a5146100b4578063715018a6146100dd5780637bfb150c146100f4575b600080fd5b34801561009757600080fd5b506100b260048036038101906100ad91906111e8565b610219565b005b3480156100c057600080fd5b506100db60048036038101906100d6919061128f565b610529565b005b3480156100e957600080fd5b506100f26106c5565b005b61010e6004803603810190610109919061128f565b61074d565b005b34801561011c57600080fd5b506101376004803603810190610132919061128f565b610a5a565b60405161014c9998979695949392919061165c565b60405180910390f35b34801561016157600080fd5b5061016a610cec565b60405161017791906114c2565b60405180910390f35b34801561018c57600080fd5b506101a760048036038101906101a2919061128f565b610d15565b6040516101bc999897969594939291906115c1565b60405180910390f35b3480156101d157600080fd5b506101ec60048036038101906101e791906111bf565b610ec0565b005b3480156101fa57600080fd5b50610203610fb8565b604051610210919061157d565b60405180910390f35b610221610fbe565b73ffffffffffffffffffffffffffffffffffffffff1661023f610cec565b73ffffffffffffffffffffffffffffffffffffffff1614610295576040517f08c379a000000000000000000000000000000000000000000000000000000000815260040161028c9061151d565b60405180910390fd5b6040518061012001604052806001548152602001868152602001600060018111156102e9577f4e487b7100000000000000000000000000000000000000000000000000000000600052602160045260246000fd5b81526020018581526020018381526020018281526020018481526020013373ffffffffffffffffffffffffffffffffffffffff168152602001600073ffffffffffffffffffffffffffffffffffffffff1681525060026000600154815260200190815260200160002060008201518160000155602082015181600101908051906020019061037892919061108a565b5060408201518160020160006101000a81548160ff021916908360018111156103ca577f4e487b7100000000000000000000000000000000000000000000000000000000600052602160045260246000fd5b0217905550606082015181600301556080820151816004015560a08201518160050190805190602001906103ff92919061108a565b5060c0820151816006015560e08201518160070160006101000a81548173ffffffffffffffffffffffffffffffffffffffff021916908373ffffffffffffffffffffffffffffffffffffffff1602179055506101008201518160080160006101000a81548173ffffffffffffffffffffffffffffffffffffffff021916908373ffffffffffffffffffffffffffffffffffffffff1602179055509050507f9f766be9553a6f64c84baf47414111171633afad6f2ad2d04e59c7f30a92b9b06001546040516104cd919061157d565b60405180910390a17faff779a2b0f7d6ac7566ca9920c1a4cf550c9691db23499a78d4eac3875b76b2600154604051610506919061157d565b60405180910390a16001805461051c919061177f565b6001819055505050505050565b610531610fbe565b73ffffffffffffffffffffffffffffffffffffffff1661054f610cec565b73ffffffffffffffffffffffffffffffffffffffff16146105a5576040517f08c379a000000000000000000000000000000000000000000000000000000000815260040161059c9061151d565b60405180910390fd5b600060026000838152602001908152602001600020905060008160020160006101000a81548160ff0219169083600181111561060a577f4e487b7100000000000000000000000000000000000000000000000000000000600052602160045260246000fd5b021790555060008160080160006101000a81548173ffffffffffffffffffffffffffffffffffffffff021916908373ffffffffffffffffffffffffffffffffffffffff1602179055507f9f766be9553a6f64c84baf47414111171633afad6f2ad2d04e59c7f30a92b9b082604051610682919061157d565b60405180910390a17faff779a2b0f7d6ac7566ca9920c1a4cf550c9691db23499a78d4eac3875b76b2826040516106b9919061157d565b60405180910390a15050565b6106cd610fbe565b73ffffffffffffffffffffffffffffffffffffffff166106eb610cec565b73ffffffffffffffffffffffffffffffffffffffff1614610741576040517f08c379a00000000000000000000000000000000000000000000000000000000081526004016107389061151d565b60405180910390fd5b61074b6000610fc6565b565b8060006001811115610788577f4e487b7100000000000000000000000000000000000000000000000000000000600052602160045260246000fd5b6002600083815260200190815260200160002060020160009054906101000a900460ff1660018111156107e4577f4e487b7100000000000000000000000000000000000000000000000000000000600052602160045260246000fd5b14610824576040517f08c379a000000000000000000000000000000000000000000000000000000000815260040161081b9061153d565b60405180910390fd5b813460026000838152602001908152602001600020600601541461087d576040517f08c379a00000000000000000000000000000000000000000000000000000000081526004016108749061155d565b60405180910390fd5b600060026000858152602001908152602001600020905060018160020160006101000a81548160ff021916908360018111156108e2577f4e487b7100000000000000000000000000000000000000000000000000000000600052602160045260246000fd5b0217905550338160080160006101000a81548173ffffffffffffffffffffffffffffffffffffffff021916908373ffffffffffffffffffffffffffffffffffffffff1602179055506000610934610cec565b905060008173ffffffffffffffffffffffffffffffffffffffff163460405161095c906114ad565b60006040518083038185875af1925050503d8060008114610999576040519150601f19603f3d011682016040523d82523d6000602084013e61099e565b606091505b50509050806109e2576040517f08c379a00000000000000000000000000000000000000000000000000000000081526004016109d9906114fd565b60405180910390fd5b7fd278f3bc5ca0a51dcaa29236496a4fd7057c3e62e63c62a2a9a1324784876cbf8633604051610a13929190611598565b60405180910390a17fedcece341ee7eb768508ccba653215d8f75e8d2969ac8be59469398f4193e19786604051610a4a919061157d565b60405180910390a1505050505050565b600060606000806000806060600080600260008b8152602001908152602001600020600001549850600260008b81526020019081526020016000206001018054610aa39061188a565b80601f0160208091040260200160405190810160405280929190818152602001828054610acf9061188a565b8015610b1c5780601f10610af157610100808354040283529160200191610b1c565b820191906000526020600020905b815481529060010190602001808311610aff57829003601f168201915b50505050509750600260008b815260200190815260200160002060020160009054906101000a900460ff166001811115610b7f577f4e487b7100000000000000000000000000000000000000000000000000000000600052602160045260246000fd5b9650600260008b8152602001908152602001600020600301549550600260008b8152602001908152602001600020600601549450600260008b8152602001908152602001600020600401549350600260008b81526020019081526020016000206005018054610bed9061188a565b80601f0160208091040260200160405190810160405280929190818152602001828054610c199061188a565b8015610c665780601f10610c3b57610100808354040283529160200191610c66565b820191906000526020600020905b815481529060010190602001808311610c4957829003601f168201915b50505050509250600260008b815260200190815260200160002060070160009054906101000a900473ffffffffffffffffffffffffffffffffffffffff169150600260008b815260200190815260200160002060080160009054906101000a900473ffffffffffffffffffffffffffffffffffffffff1690509193959799909294969850565b60008060009054906101000a900473ffffffffffffffffffffffffffffffffffffffff16905090565b6002602052806000526040600020600091509050806000015490806001018054610d3e9061188a565b80601f0160208091040260200160405190810160405280929190818152602001828054610d6a9061188a565b8015610db75780601f10610d8c57610100808354040283529160200191610db7565b820191906000526020600020905b815481529060010190602001808311610d9a57829003601f168201915b5050505050908060020160009054906101000a900460ff1690806003015490806004015490806005018054610deb9061188a565b80601f0160208091040260200160405190810160405280929190818152602001828054610e179061188a565b8015610e645780601f10610e3957610100808354040283529160200191610e64565b820191906000526020600020905b815481529060010190602001808311610e4757829003601f168201915b5050505050908060060154908060070160009054906101000a900473ffffffffffffffffffffffffffffffffffffffff16908060080160009054906101000a900473ffffffffffffffffffffffffffffffffffffffff16905089565b610ec8610fbe565b73ffffffffffffffffffffffffffffffffffffffff16610ee6610cec565b73ffffffffffffffffffffffffffffffffffffffff1614610f3c576040517f08c379a0000000000000000000000000000000000000000000000000000000008152600401610f339061151d565b60405180910390fd5b600073ffffffffffffffffffffffffffffffffffffffff168173ffffffffffffffffffffffffffffffffffffffff161415610fac576040517f08c379a0000000000000000000000000000000000000000000000000000000008152600401610fa3906114dd565b60405180910390fd5b610fb581610fc6565b50565b60015481565b600033905090565b60008060009054906101000a900473ffffffffffffffffffffffffffffffffffffffff169050816000806101000a81548173ffffffffffffffffffffffffffffffffffffffff021916908373ffffffffffffffffffffffffffffffffffffffff1602179055508173ffffffffffffffffffffffffffffffffffffffff168173ffffffffffffffffffffffffffffffffffffffff167f8be0079c531659141344cd1fd0a4f28419497f9722a3daafe3b4186f6b6457e060405160405180910390a35050565b8280546110969061188a565b90600052602060002090601f0160209004810192826110b857600085556110ff565b82601f106110d157805160ff19168380011785556110ff565b828001600101855582156110ff579182015b828111156110fe5782518255916020019190600101906110e3565b5b50905061110c9190611110565b5090565b5b80821115611129576000816000905550600101611111565b5090565b600061114061113b84611728565b6116f7565b90508281526020810184848401111561115857600080fd5b611163848285611848565b509392505050565b60008135905061117a8161199d565b92915050565b600082601f83011261119157600080fd5b81356111a184826020860161112d565b91505092915050565b6000813590506111b9816119b4565b92915050565b6000602082840312156111d157600080fd5b60006111df8482850161116b565b91505092915050565b600080600080600060a0868803121561120057600080fd5b600086013567ffffffffffffffff81111561121a57600080fd5b61122688828901611180565b9550506020611237888289016111aa565b9450506040611248888289016111aa565b9350506060611259888289016111aa565b925050608086013567ffffffffffffffff81111561127657600080fd5b61128288828901611180565b9150509295509295909350565b6000602082840312156112a157600080fd5b60006112af848285016111aa565b91505092915050565b6112c1816117e7565b82525050565b6112d0816117d5565b82525050565b6112df81611836565b82525050565b60006112f082611758565b6112fa818561176e565b935061130a818560208601611857565b61131381611978565b840191505092915050565b600061132b60268361176e565b91507f4f776e61626c653a206e6577206f776e657220697320746865207a65726f206160008301527f64647265737300000000000000000000000000000000000000000000000000006020830152604082019050919050565b600061139160148361176e565b91507f52656e74696e6720756e6974206661696c65642e0000000000000000000000006000830152602082019050919050565b60006113d160208361176e565b91507f4f776e61626c653a2063616c6c6572206973206e6f7420746865206f776e65726000830152602082019050919050565b6000611411600083611763565b9150600082019050919050565b600061142b60148361176e565b91507f556e6974206973206e6f7420666f722072656e740000000000000000000000006000830152602082019050919050565b600061146b60128361176e565b91507f4e6f7420656e6f756768206465706f73697400000000000000000000000000006000830152602082019050919050565b6114a78161182c565b82525050565b60006114b882611404565b9150819050919050565b60006020820190506114d760008301846112c7565b92915050565b600060208201905081810360008301526114f68161131e565b9050919050565b6000602082019050818103600083015261151681611384565b9050919050565b60006020820190508181036000830152611536816113c4565b9050919050565b600060208201905081810360008301526115568161141e565b9050919050565b600060208201905081810360008301526115768161145e565b9050919050565b6000602082019050611592600083018461149e565b92915050565b60006040820190506115ad600083018561149e565b6115ba60208301846112c7565b9392505050565b6000610120820190506115d7600083018c61149e565b81810360208301526115e9818b6112e5565b90506115f8604083018a6112d6565b611605606083018961149e565b611612608083018861149e565b81810360a083015261162481876112e5565b905061163360c083018661149e565b61164060e08301856112b8565b61164e6101008301846112b8565b9a9950505050505050505050565b600061012082019050611672600083018c61149e565b8181036020830152611684818b6112e5565b9050611693604083018a61149e565b6116a0606083018961149e565b6116ad608083018861149e565b6116ba60a083018761149e565b81810360c08301526116cc81866112e5565b90506116db60e08301856112c7565b6116e96101008301846112c7565b9a9950505050505050505050565b6000604051905081810181811067ffffffffffffffff8211171561171e5761171d611949565b5b8060405250919050565b600067ffffffffffffffff82111561174357611742611949565b5b601f19601f8301169050602081019050919050565b600081519050919050565b600081905092915050565b600082825260208201905092915050565b600061178a8261182c565b91506117958361182c565b9250827fffffffffffffffffffffffffffffffffffffffffffffffffffffffffffffffff038211156117ca576117c96118bc565b5b828201905092915050565b60006117e08261180c565b9050919050565b60006117f28261180c565b9050919050565b600081905061180782611989565b919050565b600073ffffffffffffffffffffffffffffffffffffffff82169050919050565b6000819050919050565b6000611841826117f9565b9050919050565b82818337600083830152505050565b60005b8381101561187557808201518184015260208101905061185a565b83811115611884576000848401525b50505050565b600060028204905060018216806118a257607f821691505b602082108114156118b6576118b561191a565b5b50919050565b7f4e487b7100000000000000000000000000000000000000000000000000000000600052601160045260246000fd5b7f4e487b7100000000000000000000000000000000000000000000000000000000600052602160045260246000fd5b7f4e487b7100000000000000000000000000000000000000000000000000000000600052602260045260246000fd5b7f4e487b7100000000000000000000000000000000000000000000000000000000600052604160045260246000fd5b6000601f19601f8301169050919050565b6002811061199a576119996118eb565b5b50565b6119a6816117d5565b81146119b157600080fd5b50565b6119bd8161182c565b81146119c857600080fd5b5056fea26469706673582212203b95cc06e769f4d0998bab6dd780011a6fa541426463c1b768a3eb7e390f70cd64736f6c63430008000033",
  "immutableReferences": {},
  "source": "// SPDX-License-Identifier: MIT\npragma solidity ^0.8.0;\n\n/// @title A decentralized real estate app\n/// @author MBowey\n/// @notice Landlords can use this contract to lease rental units \n/// @dev All function calls are currently implemented without side effects\n\n\nimport \"@openzeppelin/contracts/access/Ownable.sol\";\n\ncontract Rentals is Ownable {\n\n  /// @notice Emitted when a new unit is added to the contract\n  uint public unitCount = 1; \n\n\n  struct Unit {\n    uint unitNumber;\n    string unitAddress;\n    State state;\n    uint rent; \n    uint term;\n    string startDate;\n    uint deposit;\n    address payable landlord;\n    address payable tenant;\n  }\n\n\n  // <units mapping>\n  mapping (uint => Unit) public units;\n\n\n  // <enum State: Vacant, Occupied>\n  enum State { ForRent, Occupied}\n\n\n  /// @notice Emitted when a unit is added and listed of rent\n  /// @param unitNumber Unit Number requiring state change\n  event LogForRent(uint unitNumber);\n\n  /// @notice Emitted when a unit is has been rented\n  /// @param unitNumber Unit Number requiring state change\n  event LogOccupied(uint unitNumber);\n\n  /// @notice Emitted when a unit is added \n  event LogUnitAdded(uint unitNumber);\n\n  /// @notice Emitted when a unit has been rented\n  event LogUnitRented(uint unitNumber, address tenant);\n  \n  \n /// @notice Ensures the unit is available for rent\n  modifier forRent(uint unitNumber) {\n    require(units[unitNumber].state == State.ForRent, \"Unit is not for rent\");\n    _;\n  }\n  /// @notice Ensures tenant has deposited rent\n  modifier paidDeposit(uint unitNumber) { \n    require(units[unitNumber].deposit == msg.value, \"Not enough deposit\"); \n    _;\n  }\n\n  \n\n  constructor()  {}\n\n  /// @notice Adds a unit under the ownership of a landlord \n  /// @param _unitAddress Address of the unit being listed\n  /// @dev The landlord adding the unit must be the owner of the contract \n  /// @dev The unit number is automatically assigned\n  function addUnit(\n    string memory _unitAddress, \n    uint _rent, \n    uint _deposit,\n    uint _term, \n    string memory _startDate\n    ) onlyOwner public  {\n   \n\n    units[unitCount] = Unit({\n     unitNumber: unitCount,\n     unitAddress: _unitAddress,\n     state: State.ForRent,\n     rent: _rent,\n     deposit: _deposit,\n     term: _term,\n     startDate: _startDate,\n     landlord: payable(msg.sender),\n     tenant: payable(address(0))\n    });\n    \n    emit LogUnitAdded(unitCount);\n    emit LogForRent(unitCount);\n    unitCount = unitCount + 1;\n    \n  \n  }\n\n\n  \n  /// @notice Allows tenant to rent a unit that is availabe to rent \n  /// @param _unitNumber The unit number to be listed\n  /// @dev The unit must be available for rent\n  /// @dev The tenant must pay enough deposit to rent unit  \n  function rentUnit(uint _unitNumber) \n  public \n  payable \n  forRent(_unitNumber) \n  paidDeposit(_unitNumber)  \n  {\n\n    Unit storage _unit = units[_unitNumber];\n    _unit.state = State.Occupied;\n    _unit.tenant = payable(msg.sender);\n\n    address owner = owner();\n\n    (bool success, ) = owner.call{ value: msg.value }(\"\");\n        require(success, \"Renting unit failed.\");\n    \n\n    emit LogUnitRented(_unitNumber, msg.sender);\n    emit LogOccupied(_unitNumber);\n    \n  }\n\n  /// @notice Allows landlord to terminate a lease and evict tenant\n  /// @param _unitNumber The unit that is to be terminated\n  /// @dev The landlord must be the owner of the unit\n  function terminateLease(\n    uint _unitNumber\n    ) \n    onlyOwner public { \n    \n    Unit storage _unit = units[_unitNumber];\n    _unit.state = State.ForRent;\n    _unit.tenant = payable(address(0));\n    \n\n    emit LogUnitAdded(_unitNumber);\n    emit LogForRent(_unitNumber);\n\n  }\n  \n\n  /// @notice Allows landlord/tenant to fetch the details of a unit\n  /// @param _unitNumber The unit number to be fetched\n  function fetchUnit(uint _unitNumber) public view \n      returns (\n        uint unitNumber, \n        string memory unitAddress,\n        uint state, \n        uint rent, \n        uint deposit,\n        uint term, \n        string memory startDate, \n        address landlord, \n        address tenant\n        )  \n    {\n      unitNumber = units[_unitNumber].unitNumber; \n      unitAddress =  units[_unitNumber].unitAddress;\n      state = uint(units[_unitNumber].state); \n      rent = units[_unitNumber].rent;\n      deposit = units[_unitNumber].deposit;\n      term = units[_unitNumber].term;\n      startDate = units[_unitNumber].startDate; \n      landlord = units[_unitNumber].landlord; \n      tenant = units[_unitNumber].tenant; \n      return (unitNumber, unitAddress, state,rent, deposit, term, startDate,  landlord, tenant); \n    } \n  \n}\n",
  "sourcePath": "/Users/mbowey/Desktop/newDapp/contracts/Rentals.sol",
  "compiler": {
    "name": "solc",
    "version": "0.8.0+commit.c7dfd78e.Emscripten.clang"
  },
  "schemaVersion": "3.4.3",
  "updatedAt": "2022-02-18T04:14:42.735Z",
  "networkType": "ethereum",
  "devdoc": {
    "events": {
      "LogForRent(uint256)": {
        "params": {
          "unitNumber": "Unit Number requiring state change"
        }
      },
      "LogOccupied(uint256)": {
        "params": {
          "unitNumber": "Unit Number requiring state change"
        }
      }
    },
    "kind": "dev",
    "methods": {
      "addUnit(string,uint256,uint256,uint256,string)": {
        "details": "The landlord adding the unit must be the owner of the contract The unit number is automatically assigned",
        "params": {
          "_unitAddress": "Address of the unit being listed"
        }
      },
      "fetchUnit(uint256)": {
        "params": {
          "_unitNumber": "The unit number to be fetched"
        }
      },
      "owner()": {
        "details": "Returns the address of the current owner."
      },
      "renounceOwnership()": {
        "details": "Leaves the contract without owner. It will not be possible to call `onlyOwner` functions anymore. Can only be called by the current owner. NOTE: Renouncing ownership will leave the contract without an owner, thereby removing any functionality that is only available to the owner."
      },
      "rentUnit(uint256)": {
        "details": "The unit must be available for rentThe tenant must pay enough deposit to rent unit  ",
        "params": {
          "_unitNumber": "The unit number to be listed"
        }
      },
      "terminateLease(uint256)": {
        "details": "The landlord must be the owner of the unit",
        "params": {
          "_unitNumber": "The unit that is to be terminated"
        }
      },
      "transferOwnership(address)": {
        "details": "Transfers ownership of the contract to a new account (`newOwner`). Can only be called by the current owner."
      }
    },
    "version": 1
  },
  "userdoc": {
    "events": {
      "LogForRent(uint256)": {
        "notice": "Emitted when a unit is added and listed of rent"
      },
      "LogOccupied(uint256)": {
        "notice": "Emitted when a unit is has been rented"
      },
      "LogUnitAdded(uint256)": {
        "notice": "Emitted when a unit is added "
      },
      "LogUnitRented(uint256,address)": {
        "notice": "Emitted when a unit has been rented"
      }
    },
    "kind": "user",
    "methods": {
      "addUnit(string,uint256,uint256,uint256,string)": {
        "notice": "Adds a unit under the ownership of a landlord "
      },
      "fetchUnit(uint256)": {
        "notice": "Allows landlord/tenant to fetch the details of a unit"
      },
      "rentUnit(uint256)": {
        "notice": "Allows tenant to rent a unit that is availabe to rent "
      },
      "terminateLease(uint256)": {
        "notice": "Allows landlord to terminate a lease and evict tenant"
      },
      "unitCount()": {
        "notice": "Emitted when a new unit is added to the contract"
      }
    },
    "version": 1
  }
}